{
  "contractName": "education",
  "abi": [
    {
      "payable": true,
      "stateMutability": "payable",
      "type": "fallback"
    },
    {
      "constant": false,
      "inputs": [
        {
          "name": "reqname",
          "type": "string"
        },
        {
          "name": "name",
          "type": "string"
        },
        {
          "name": "details",
          "type": "string"
        }
      ],
      "name": "request_course",
      "outputs": [],
      "payable": true,
      "stateMutability": "payable",
      "type": "function"
    },
    {
      "constant": true,
      "inputs": [],
      "name": "viewcourserequests",
      "outputs": [
        {
          "name": "",
          "type": "bytes32[]"
        }
      ],
      "payable": false,
      "stateMutability": "view",
      "type": "function"
    },
    {
      "constant": true,
      "inputs": [
        {
          "name": "id",
          "type": "bytes32"
        }
      ],
      "name": "viewcourserequestswithdetails",
      "outputs": [
        {
          "name": "",
          "type": "bytes32"
        },
        {
          "name": "",
          "type": "string"
        },
        {
          "name": "",
          "type": "string"
        },
        {
          "name": "",
          "type": "uint256"
        },
        {
          "name": "",
          "type": "address"
        },
        {
          "name": "",
          "type": "bool"
        },
        {
          "name": "",
          "type": "address"
        }
      ],
      "payable": false,
      "stateMutability": "view",
      "type": "function"
    },
    {
      "constant": false,
      "inputs": [
        {
          "name": "id",
          "type": "bytes32"
        }
      ],
      "name": "acceptcoursereq",
      "outputs": [],
      "payable": false,
      "stateMutability": "nonpayable",
      "type": "function"
    },
    {
      "constant": true,
      "inputs": [],
      "name": "showcreatedcourse",
      "outputs": [
        {
          "name": "",
          "type": "bytes32[]"
        }
      ],
      "payable": false,
      "stateMutability": "view",
      "type": "function"
    },
    {
      "constant": true,
      "inputs": [],
      "name": "showmycourses",
      "outputs": [
        {
          "name": "",
          "type": "bytes32[]"
        }
      ],
      "payable": false,
      "stateMutability": "view",
      "type": "function"
    },
    {
      "constant": true,
      "inputs": [],
      "name": "showmycoursereq",
      "outputs": [
        {
          "name": "",
          "type": "bytes32[]"
        }
      ],
      "payable": false,
      "stateMutability": "view",
      "type": "function"
    },
    {
      "constant": false,
      "inputs": [
        {
          "name": "id",
          "type": "bytes32"
        }
      ],
      "name": "removereq",
      "outputs": [],
      "payable": false,
      "stateMutability": "nonpayable",
      "type": "function"
    },
    {
      "constant": false,
      "inputs": [
        {
          "name": "reqid",
          "type": "bytes32"
        },
        {
          "name": "vidhash",
          "type": "string"
        }
      ],
      "name": "addvideo",
      "outputs": [],
      "payable": false,
      "stateMutability": "nonpayable",
      "type": "function"
    },
    {
      "constant": true,
      "inputs": [
        {
          "name": "id",
          "type": "bytes32"
        },
        {
          "name": "i",
          "type": "uint256"
        }
      ],
      "name": "showvideos",
      "outputs": [
        {
          "name": "",
          "type": "string"
        }
      ],
      "payable": false,
      "stateMutability": "view",
      "type": "function"
    },
    {
      "constant": true,
      "inputs": [
        {
          "name": "id",
          "type": "bytes32"
        }
      ],
      "name": "showallvideos",
      "outputs": [
        {
          "name": "",
          "type": "uint256"
        }
      ],
      "payable": false,
      "stateMutability": "view",
      "type": "function"
    },
    {
      "constant": false,
      "inputs": [
        {
          "name": "reqname",
          "type": "string"
        },
        {
          "name": "name",
          "type": "string"
        },
        {
          "name": "description",
          "type": "string"
        },
        {
          "name": "fees",
          "type": "uint256"
        }
      ],
      "name": "newcourse",
      "outputs": [],
      "payable": false,
      "stateMutability": "nonpayable",
      "type": "function"
    },
    {
      "constant": false,
      "inputs": [
        {
          "name": "id",
          "type": "bytes32"
        },
        {
          "name": "vid",
          "type": "string"
        }
      ],
      "name": "addvideotocourse",
      "outputs": [],
      "payable": false,
      "stateMutability": "nonpayable",
      "type": "function"
    },
    {
      "constant": false,
      "inputs": [
        {
          "name": "id",
          "type": "bytes32"
        }
      ],
      "name": "takecourse",
      "outputs": [],
      "payable": true,
      "stateMutability": "payable",
      "type": "function"
    },
    {
      "constant": true,
      "inputs": [],
      "name": "showallcourses",
      "outputs": [
        {
          "name": "",
          "type": "bytes32[]"
        }
      ],
      "payable": false,
      "stateMutability": "view",
      "type": "function"
    },
    {
      "constant": true,
      "inputs": [
        {
          "name": "id",
          "type": "bytes32"
        }
      ],
      "name": "showcoursebyid",
      "outputs": [
        {
          "name": "",
          "type": "bytes32"
        },
        {
          "name": "",
          "type": "string"
        },
        {
          "name": "",
          "type": "string"
        },
        {
          "name": "",
          "type": "uint256"
        },
        {
          "name": "",
          "type": "address"
        },
        {
          "name": "",
          "type": "string"
        }
      ],
      "payable": false,
      "stateMutability": "view",
      "type": "function"
    }
  ],
  "bytecode": "0x608060405234801561001057600080fd5b50612366806100206000396000f3006080604052600436106100e6576000357c0100000000000000000000000000000000000000000000000000000000900463ffffffff168063042b4fdd146100e857806306c985341461019c578063086488ec146101e15780631cb6ad481461024d5780633a41c7cc146102b957806341fe7287146103b857806350f9b515146104245780636f043c77146105c1578063746fcea71461078c5780637ce9498d146108745780639c0ba6b9146108eb578063a1fbe83914610957578063afe239a4146109c3578063b3b046eb146109f4578063c9b892fe14610a25578063cdd134d914610a49575b005b3480156100f457600080fd5b50610121600480360381019080803560001916906020019092919080359060200190929190505050610ac0565b6040518080602001828103825283818151815260200191508051906020019080838360005b83811015610161578082015181840152602081019050610146565b50505050905090810190601f16801561018e5780820380516001836020036101000a031916815260200191505b509250505060405180910390f35b3480156101a857600080fd5b506101cb6004803603810190808035600019169060200190929190505050610b95565b6040518082815260200191505060405180910390f35b3480156101ed57600080fd5b506101f6610bbd565b6040518080602001828103825283818151815260200191508051906020019060200280838360005b8381101561023957808201518184015260208101905061021e565b505050509050019250505060405180910390f35b34801561025957600080fd5b50610262610c19565b6040518080602001828103825283818151815260200191508051906020019060200280838360005b838110156102a557808201518184015260208101905061028a565b505050509050019250505060405180910390f35b3480156102c557600080fd5b506103b6600480360381019080803590602001908201803590602001908080601f0160208091040260200160405190810160405280939291908181526020018383808284378201915050505050509192919290803590602001908201803590602001908080601f0160208091040260200160405190810160405280939291908181526020018383808284378201915050505050509192919290803590602001908201803590602001908080601f016020809104026020016040519081016040528093929190818152602001838380828437820191505050505050919291929080359060200190929190505050610cb2565b005b3480156103c457600080fd5b506103cd6110bc565b6040518080602001828103825283818151815260200191508051906020019060200280838360005b838110156104105780820151818401526020810190506103f5565b505050509050019250505060405180910390f35b34801561043057600080fd5b506104536004803603810190808035600019169060200190929190505050611118565b60405180886000191660001916815260200180602001806020018781526020018673ffffffffffffffffffffffffffffffffffffffff1673ffffffffffffffffffffffffffffffffffffffff168152602001851515151581526020018473ffffffffffffffffffffffffffffffffffffffff1673ffffffffffffffffffffffffffffffffffffffff168152602001838103835289818151815260200191508051906020019080838360005b838110156105195780820151818401526020810190506104fe565b50505050905090810190601f1680156105465780820380516001836020036101000a031916815260200191505b50838103825288818151815260200191508051906020019080838360005b8381101561057f578082015181840152602081019050610564565b50505050905090810190601f1680156105ac5780820380516001836020036101000a031916815260200191505b50995050505050505050505060405180910390f35b3480156105cd57600080fd5b506105f06004803603810190808035600019169060200190929190505050611398565b60405180876000191660001916815260200180602001806020018681526020018573ffffffffffffffffffffffffffffffffffffffff1673ffffffffffffffffffffffffffffffffffffffff16815260200180602001848103845289818151815260200191508051906020019080838360005b8381101561067e578082015181840152602081019050610663565b50505050905090810190601f1680156106ab5780820380516001836020036101000a031916815260200191505b50848103835288818151815260200191508051906020019080838360005b838110156106e45780820151818401526020810190506106c9565b50505050905090810190601f1680156107115780820380516001836020036101000a031916815260200191505b50848103825285818151815260200191508051906020019080838360005b8381101561074a57808201518184015260208101905061072f565b50505050905090810190601f1680156107775780820380516001836020036101000a031916815260200191505b50995050505050505050505060405180910390f35b610872600480360381019080803590602001908201803590602001908080601f0160208091040260200160405190810160405280939291908181526020018383808284378201915050505050509192919290803590602001908201803590602001908080601f0160208091040260200160405190810160405280939291908181526020018383808284378201915050505050509192919290803590602001908201803590602001908080601f01602080910402602001604051908101604052809392919081815260200183838082843782019150505050505091929192905050506116c1565b005b34801561088057600080fd5b506108e96004803603810190808035600019169060200190929190803590602001908201803590602001908080601f0160208091040260200160405190810160405280939291908181526020018383808284378201915050505050509192919290505050611c47565b005b3480156108f757600080fd5b50610900611ca3565b6040518080602001828103825283818151815260200191508051906020019060200280838360005b83811015610943578082015181840152602081019050610928565b505050509050019250505060405180910390f35b34801561096357600080fd5b5061096c611d3c565b6040518080602001828103825283818151815260200191508051906020019060200280838360005b838110156109af578082015181840152602081019050610994565b505050509050019250505060405180910390f35b3480156109cf57600080fd5b506109f26004803603810190808035600019169060200190929190505050611dd5565b005b348015610a0057600080fd5b50610a236004803603810190808035600019169060200190929190505050611e0f565b005b610a476004803603810190808035600019169060200190929190505050611f15565b005b348015610a5557600080fd5b50610abe6004803603810190808035600019169060200190929190803590602001908201803590602001908080601f0160208091040260200160405190810160405280939291908181526020018383808284378201915050505050509192919290505050611fb3565b005b606060066000846000191660001916815260200190815260200160002082815481101515610aea57fe5b906000526020600020018054600181600116156101000203166002900480601f016020809104026020016040519081016040528092919081815260200182805460018160011615610100020316600290048015610b885780601f10610b5d57610100808354040283529160200191610b88565b820191906000526020600020905b815481529060010190602001808311610b6b57829003601f168201915b5050505050905092915050565b6000600660008360001916600019168152602001908152602001600020805490509050919050565b6060600d805480602002602001604051908101604052809291908181526020018280548015610c0f57602002820191906000526020600020905b81546000191681526020019060010190808311610bf7575b5050505050905090565b6060600a60003373ffffffffffffffffffffffffffffffffffffffff1673ffffffffffffffffffffffffffffffffffffffff168152602001908152602001600020805480602002602001604051908101604052809291908181526020018280548015610ca857602002820191906000526020600020905b81546000191681526020019060010190808311610c90575b5050505050905090565b600083336040518083805190602001908083835b602083101515610ceb5780518252602082019150602081019050602083039250610cc6565b6001836020036101000a0380198251168184511680821785525050505050509050018273ffffffffffffffffffffffffffffffffffffffff1673ffffffffffffffffffffffffffffffffffffffff166c0100000000000000000000000002815260140192505050604051809103902090506020604051908101604052806040805190810160405280600181526020017f3000000000000000000000000000000000000000000000000000000000000000815250815250600660008360001916600019168152602001908152602001600020906001610dca929190612087565b5060a060405190810160405280826000191681526020018581526020018481526020018381526020013373ffffffffffffffffffffffffffffffffffffffff168152506000808360001916600019168152602001908152602001600020600082015181600001906000191690556020820151816001019080519060200190610e539291906120e7565b506040820151816002019080519060200190610e709291906120e7565b506060820151816003015560808201518160040160006101000a81548173ffffffffffffffffffffffffffffffffffffffff021916908373ffffffffffffffffffffffffffffffffffffffff160217905550905050600d81908060018154018082558091505090600182039060005260206000200160009091929091909150906000191690555060a060405190810160405280826000191681526020018581526020018481526020018381526020013373ffffffffffffffffffffffffffffffffffffffff16815250600860008360001916600019168152602001908152602001600020600082015181600001906000191690556020820151816001019080519060200190610f809291906120e7565b506040820151816002019080519060200190610f9d9291906120e7565b506060820151816003015560808201518160040160006101000a81548173ffffffffffffffffffffffffffffffffffffffff021916908373ffffffffffffffffffffffffffffffffffffffff16021790555090505084600960003373ffffffffffffffffffffffffffffffffffffffff1673ffffffffffffffffffffffffffffffffffffffff1681526020019081526020016000209080519060200190611045929190612167565b50600a60003373ffffffffffffffffffffffffffffffffffffffff1673ffffffffffffffffffffffffffffffffffffffff1681526020019081526020016000208190806001815401808255809150509060018203906000526020600020016000909192909190915090600019169055505050505050565b6060600c80548060200260200160405190810160405280929190818152602001828054801561110e57602002820191906000526020600020905b815460001916815260200190600101908083116110f6575b5050505050905090565b600060608060008060008060036000896000191660001916815260200190815260200160002060000154600360008a60001916600019168152602001908152602001600020600101600360008b60001916600019168152602001908152602001600020600201600360008c6000191660001916815260200190815260200160002060030154600360008d6000191660001916815260200190815260200160002060040160009054906101000a900473ffffffffffffffffffffffffffffffffffffffff16600360008e6000191660001916815260200190815260200160002060040160149054906101000a900460ff16600360008f6000191660001916815260200190815260200160002060050160009054906101000a900473ffffffffffffffffffffffffffffffffffffffff16858054600181600116156101000203166002900480601f0160208091040260200160405190810160405280929190818152602001828054600181600116156101000203166002900480156112dc5780601f106112b1576101008083540402835291602001916112dc565b820191906000526020600020905b8154815290600101906020018083116112bf57829003601f168201915b50505050509550848054600181600116156101000203166002900480601f0160208091040260200160405190810160405280929190818152602001828054600181600116156101000203166002900480156113785780601f1061134d57610100808354040283529160200191611378565b820191906000526020600020905b81548152906001019060200180831161135b57829003601f168201915b505050505094509650965096509650965096509650919395979092949650565b6000606080600080606060086000886000191660001916815260200190815260200160002060000154600860008960001916600019168152602001908152602001600020600101600860008a60001916600019168152602001908152602001600020600201600860008b6000191660001916815260200190815260200160002060030154600860008c6000191660001916815260200190815260200160002060040160009054906101000a900473ffffffffffffffffffffffffffffffffffffffff1660096000600860008f6000191660001916815260200190815260200160002060040160009054906101000a900473ffffffffffffffffffffffffffffffffffffffff1673ffffffffffffffffffffffffffffffffffffffff1673ffffffffffffffffffffffffffffffffffffffff168152602001908152602001600020848054600181600116156101000203166002900480601f01602080910402602001604051908101604052809291908181526020018280546001816001161561010002031660029004801561156d5780601f106115425761010080835404028352916020019161156d565b820191906000526020600020905b81548152906001019060200180831161155057829003601f168201915b50505050509450838054600181600116156101000203166002900480601f0160208091040260200160405190810160405280929190818152602001828054600181600116156101000203166002900480156116095780601f106115de57610100808354040283529160200191611609565b820191906000526020600020905b8154815290600101906020018083116115ec57829003601f168201915b50505050509350808054600181600116156101000203166002900480601f0160208091040260200160405190810160405280929190818152602001828054600181600116156101000203166002900480156116a55780601f1061167a576101008083540402835291602001916116a5565b820191906000526020600020905b81548152906001019060200180831161168857829003601f168201915b5050505050905095509550955095509550955091939550919395565b600082336040518083805190602001908083835b6020831015156116fa57805182526020820191506020810190506020830392506116d5565b6001836020036101000a0380198251168184511680821785525050505050509050018273ffffffffffffffffffffffffffffffffffffffff1673ffffffffffffffffffffffffffffffffffffffff166c01000000000000000000000000028152601401925050506040518091039020905060e060405190810160405280826000191681526020018481526020018381526020013481526020013373ffffffffffffffffffffffffffffffffffffffff168152602001600015158152602001600073ffffffffffffffffffffffffffffffffffffffff16815250600260003373ffffffffffffffffffffffffffffffffffffffff1673ffffffffffffffffffffffffffffffffffffffff16815260200190815260200160002060008201518160000190600019169055602082015181600101908051906020019061183e9291906120e7565b50604082015181600201908051906020019061185b9291906120e7565b506060820151816003015560808201518160040160006101000a81548173ffffffffffffffffffffffffffffffffffffffff021916908373ffffffffffffffffffffffffffffffffffffffff16021790555060a08201518160040160146101000a81548160ff02191690831515021790555060c08201518160050160006101000a81548173ffffffffffffffffffffffffffffffffffffffff021916908373ffffffffffffffffffffffffffffffffffffffff16021790555090505060e060405190810160405280826000191681526020018481526020018381526020013481526020013373ffffffffffffffffffffffffffffffffffffffff168152602001600015158152602001600073ffffffffffffffffffffffffffffffffffffffff168152506003600083600019166000191681526020019081526020016000206000820151816000019060001916905560208201518160010190805190602001906119c69291906120e7565b5060408201518160020190805190602001906119e39291906120e7565b506060820151816003015560808201518160040160006101000a81548173ffffffffffffffffffffffffffffffffffffffff021916908373ffffffffffffffffffffffffffffffffffffffff16021790555060a08201518160040160146101000a81548160ff02191690831515021790555060c08201518160050160006101000a81548173ffffffffffffffffffffffffffffffffffffffff021916908373ffffffffffffffffffffffffffffffffffffffff160217905550905050600c819080600181540180825580915050906001820390600052602060002001600090919290919091509060001916905550602060405190810160405280600060ff16815250600460008360001916600019168152602001908152602001600020906001611b0e9291906121e7565b506020604051908101604052806040805190810160405280600181526020017f3000000000000000000000000000000000000000000000000000000000000000815250815250600660008360001916600019168152602001908152602001600020906001611b7d929190612087565b5083600960003373ffffffffffffffffffffffffffffffffffffffff1673ffffffffffffffffffffffffffffffffffffffff1681526020019081526020016000209080519060200190611bd1929190612167565b50600b60003373ffffffffffffffffffffffffffffffffffffffff1673ffffffffffffffffffffffffffffffffffffffff16815260200190815260200160002081908060018154018082558091505090600182039060005260206000200160009091929091909150906000191690555050505050565b600660008360001916600019168152602001908152602001600020819080600181540180825580915050906001820390600052602060002001600090919290919091509080519060200190611c9d929190612167565b50505050565b6060600b60003373ffffffffffffffffffffffffffffffffffffffff1673ffffffffffffffffffffffffffffffffffffffff168152602001908152602001600020805480602002602001604051908101604052809291908181526020018280548015611d3257602002820191906000526020600020905b81546000191681526020019060010190808311611d1a575b5050505050905090565b6060600760003373ffffffffffffffffffffffffffffffffffffffff1673ffffffffffffffffffffffffffffffffffffffff168152602001908152602001600020805480602002602001604051908101604052809291908181526020018280548015611dcb57602002820191906000526020600020905b81546000191681526020019060010190808311611db3575b5050505050905090565b600160036000836000191660001916815260200190815260200160002060040160146101000a81548160ff02191690831515021790555050565b600160036000836000191660001916815260200190815260200160002060040160146101000a81548160ff0219169083151502179055503360036000836000191660001916815260200190815260200160002060050160006101000a81548173ffffffffffffffffffffffffffffffffffffffff021916908373ffffffffffffffffffffffffffffffffffffffff160217905550600a60003373ffffffffffffffffffffffffffffffffffffffff1673ffffffffffffffffffffffffffffffffffffffff16815260200190815260200160002081908060018154018082558091505090600182039060005260206000200160009091929091909150906000191690555050565b6000808260001916600019168152602001908152602001600020600301543410151515611f4157600080fd5b600760003373ffffffffffffffffffffffffffffffffffffffff1673ffffffffffffffffffffffffffffffffffffffff16815260200190815260200160002081908060018154018082558091505090600182039060005260206000200160009091929091909150906000191690555050565b3373ffffffffffffffffffffffffffffffffffffffff1660036000846000191660001916815260200190815260200160002060050160009054906101000a900473ffffffffffffffffffffffffffffffffffffffff1673ffffffffffffffffffffffffffffffffffffffff1614151561202b57600080fd5b600660008360001916600019168152602001908152602001600020819080600181540180825580915050906001820390600052602060002001600090919290919091509080519060200190612081929190612167565b50505050565b8280548282559060005260206000209081019282156120d6579160200282015b828111156120d55782518290805190602001906120c59291906120e7565b50916020019190600101906120a7565b5b5090506120e3919061225e565b5090565b828054600181600116156101000203166002900490600052602060002090601f016020900481019282601f1061212857805160ff1916838001178555612156565b82800160010185558215612156579182015b8281111561215557825182559160200191906001019061213a565b5b509050612163919061228a565b5090565b828054600181600116156101000203166002900490600052602060002090601f016020900481019282601f106121a857805160ff19168380011785556121d6565b828001600101855582156121d6579182015b828111156121d55782518255916020019190600101906121ba565b5b5090506121e3919061228a565b5090565b82805482825590600052602060002090810192821561224d579160200282015b8281111561224c5782518260006101000a81548173ffffffffffffffffffffffffffffffffffffffff021916908360ff16021790555091602001919060010190612207565b5b50905061225a91906122af565b5090565b61228791905b80821115612283576000818161227a91906122f2565b50600101612264565b5090565b90565b6122ac91905b808211156122a8576000816000905550600101612290565b5090565b90565b6122ef91905b808211156122eb57600081816101000a81549073ffffffffffffffffffffffffffffffffffffffff0219169055506001016122b5565b5090565b90565b50805460018160011615610100020316600290046000825580601f106123185750612337565b601f016020900490600052602060002090810190612336919061228a565b5b505600a165627a7a7230582023cb5aaa909911da01c0783b5d6c7e5c6d0544be657798618047d33a379b27200029",
  "source": "pragma solidity ^0.4.10;\r\n\r\ncontract education {\r\n\r\n  struct user{\r\n    address user_add;\r\n    string name;\r\n    string email;\r\n    string password;\r\n  }\r\n\r\n struct coursereq{\r\n   bytes32 courseId;\r\n   string name;\r\n   string details;\r\n   uint fees;\r\n   address user_add;\r\n   bool accepted;\r\n   address teacher_add;\r\n }\r\n\r\n struct bid{\r\n   bytes32 courseid;\r\n   uint amount;\r\n   address bidder;\r\n   bool accepted;\r\n }\r\n\r\n\r\n struct course{\r\n   bytes32 courseid;\r\n   string name;\r\n   string details;\r\n   uint fees;\r\n   address trainer;\r\n }\r\n\r\n  mapping (bytes32 => course) courseadding;\r\n  mapping(address => user) usermapping;\r\n  mapping(address => coursereq) coursemapping;\r\n  mapping(bytes32 => coursereq) idtocoursemapping;\r\n  mapping(bytes32 => address[]) coursetobid;\r\n  mapping(address => bid) addresstobid;\r\n  mapping (bytes32 => string[]) coursetovid;\r\n  mapping (address => bytes32[]) usertocourse;\r\n  mapping (bytes32 => course) coursedetailmapping;\r\n  mapping (address => string) addresstoname;\r\n  mapping (address => bytes32[]) usertocreated;\r\n  mapping (address => bytes32[]) usertoreq;\r\n\r\n  /*\r\n  function register_user(string name,string email,string password) {\r\n    usermapping[msg.sender]=user(msg.sender,name,email,password);\r\n  }\r\n  */\r\n\r\n  bytes32[] requestedcourses;\r\n  function request_course(string reqname,string name,string details) payable {\r\n    bytes32 id =keccak256(name,msg.sender);\r\n    coursemapping[msg.sender]=coursereq(id,name,details,msg.value,msg.sender,false,0);\r\n    idtocoursemapping[id]=coursereq(id,name,details,msg.value,msg.sender,false,0);\r\n    requestedcourses.push(id);\r\n    coursetobid[id]=[0];\r\n    coursetovid[id]=[\"0\"];\r\n    addresstoname[msg.sender]=reqname;\r\n    usertoreq[msg.sender].push(id);\r\n  }\r\n\r\n  function viewcourserequests() constant returns(bytes32[]) {\r\n    return requestedcourses;\r\n  }\r\n\r\n  function viewcourserequestswithdetails(bytes32 id) constant returns (bytes32,string,string,uint,address,bool,address) {\r\n     return (idtocoursemapping[id].courseId,idtocoursemapping[id].name,idtocoursemapping[id].details,idtocoursemapping[id].fees,idtocoursemapping[id].user_add,idtocoursemapping[id].accepted,idtocoursemapping[id].teacher_add);\r\n  }\r\n\r\n  function acceptcoursereq(bytes32 id) {\r\n    idtocoursemapping[id].accepted=true;\r\n    idtocoursemapping[id].teacher_add=msg.sender;\r\n    usertocreated[msg.sender].push(id);\r\n\r\n  }\r\n\r\n\r\nfunction showcreatedcourse() constant returns(bytes32[]) {\r\n  return usertocreated[msg.sender];\r\n}\r\n  function showmycourses() constant returns(bytes32[]){\r\n    return usertocourse[msg.sender];\r\n  }\r\n\r\n function showmycoursereq() constant returns(bytes32[]) {\r\n   return usertoreq[msg.sender];\r\n }\r\n\r\n function removereq(bytes32 id) {\r\n   idtocoursemapping[id].accepted=true;\r\n }\r\n  function addvideo(bytes32 reqid,string vidhash) {\r\n    require(idtocoursemapping[reqid].teacher_add==msg.sender);\r\n    coursetovid[reqid].push(vidhash);\r\n  }\r\n\r\n  function showvideos(bytes32 id,uint i) constant returns(string) {\r\n    return coursetovid[id][i];\r\n  }\r\n\r\n  function showallvideos(bytes32 id) constant returns(uint) {\r\n    return coursetovid[id].length;\r\n  }\r\n\r\n  function newcourse(string reqname,string name,string description,uint fees) {\r\n    bytes32 id =keccak256(name,msg.sender);\r\n    coursetovid[id]=[\"0\"];\r\n    courseadding[id]=course(id,name,description,fees,msg.sender);\r\n    allcourses.push(id);\r\n    coursedetailmapping[id]= course(id,name,description,fees,msg.sender);\r\n    addresstoname[msg.sender]=reqname;\r\n    usertocreated[msg.sender].push(id);\r\n  }\r\n\r\n  function addvideotocourse(bytes32 id,string vid) {\r\n    coursetovid[id].push(vid);\r\n  }\r\n\r\n  function takecourse(bytes32 id) payable {\r\n    require(msg.value>=courseadding[id].fees);\r\n    usertocourse[msg.sender].push(id);\r\n  }\r\n  bytes32[] allcourses;\r\n  function showallcourses() constant returns(bytes32[]) {\r\n    return allcourses;\r\n  }\r\n\r\n  function showcoursebyid(bytes32 id) constant returns(bytes32,string,string,uint,address,string) {\r\n    return (coursedetailmapping[id].courseid,coursedetailmapping[id].name,coursedetailmapping[id].details,coursedetailmapping[id].fees,coursedetailmapping[id].trainer,addresstoname[coursedetailmapping[id].trainer]);\r\n  }\r\n\r\n\r\n  function() payable {\r\n\r\n  }\r\n}\r\n",
  "sourcePath": "/home/souradeep/Downloads/Proffeth/contracts/education.sol",
  "compiler": {
    "name": "solc",
    "version": "0.4.24+commit.e67f0147.Emscripten.clang"
  },
  "schemaVersion": "2.0.1",
  "updatedAt": "2018-08-24T10:55:49.111Z"
}