{
  "contractName": "LibraryDemo",
  "abi": [
    {
      "constant": true,
      "inputs": [],
      "name": "owner",
      "outputs": [
        {
          "name": "",
          "type": "address"
        }
      ],
      "payable": false,
      "stateMutability": "view",
      "type": "function"
    },
    {
      "constant": false,
      "inputs": [
        {
          "name": "newOwner",
          "type": "address"
        }
      ],
      "name": "transferOwnership",
      "outputs": [],
      "payable": false,
      "stateMutability": "nonpayable",
      "type": "function"
    },
    {
      "payable": true,
      "stateMutability": "payable",
      "type": "fallback"
    },
    {
      "anonymous": false,
      "inputs": [
        {
          "indexed": true,
          "name": "previousOwner",
          "type": "address"
        },
        {
          "indexed": true,
          "name": "newOwner",
          "type": "address"
        }
      ],
      "name": "OwnershipTransferred",
      "type": "event"
    },
    {
      "constant": false,
      "inputs": [
        {
          "name": "_name",
          "type": "string"
        },
        {
          "name": "_number",
          "type": "uint256"
        }
      ],
      "name": "setvalues",
      "outputs": [],
      "payable": false,
      "stateMutability": "nonpayable",
      "type": "function"
    },
    {
      "constant": true,
      "inputs": [],
      "name": "getvalues",
      "outputs": [
        {
          "name": "Name",
          "type": "string"
        },
        {
          "name": "Number",
          "type": "uint256"
        }
      ],
      "payable": false,
      "stateMutability": "view",
      "type": "function"
    },
    {
      "constant": false,
      "inputs": [],
      "name": "addmoney",
      "outputs": [],
      "payable": true,
      "stateMutability": "payable",
      "type": "function"
    },
    {
      "constant": false,
      "inputs": [
        {
          "name": "value",
          "type": "uint256"
        }
      ],
      "name": "withdrawmoney",
      "outputs": [],
      "payable": false,
      "stateMutability": "nonpayable",
      "type": "function"
    },
    {
      "constant": true,
      "inputs": [],
      "name": "showWalletBalance",
      "outputs": [
        {
          "name": "",
          "type": "uint256"
        }
      ],
      "payable": false,
      "stateMutability": "view",
      "type": "function"
    }
  ],
  "bytecode": "0x6080604052336000806101000a81548173ffffffffffffffffffffffffffffffffffffffff021916908373ffffffffffffffffffffffffffffffffffffffff16021790555061070a806100536000396000f300608060405260043610610083576000357c0100000000000000000000000000000000000000000000000000000000900463ffffffff1680630c67a36b146100855780630d7fb62f146100b0578063304a45c2146101235780638da5cb5b146101ba5780639d0f84da14610211578063bfc6ae541461021b578063f2fde38b14610248575b005b34801561009157600080fd5b5061009a61028b565b6040518082815260200191505060405180910390f35b3480156100bc57600080fd5b50610121600480360381019080803590602001908201803590602001908080601f0160208091040260200160405190810160405280939291908181526020018383808284378201915050505050509192919290803590602001909291905050506102aa565b005b34801561012f57600080fd5b50610138610327565b6040518080602001838152602001828103825284818151815260200191508051906020019080838360005b8381101561017e578082015181840152602081019050610163565b50505050905090810190601f1680156101ab5780820380516001836020036101000a031916815260200191505b50935050505060405180910390f35b3480156101c657600080fd5b506101cf6103d1565b604051808273ffffffffffffffffffffffffffffffffffffffff1673ffffffffffffffffffffffffffffffffffffffff16815260200191505060405180910390f35b6102196103f6565b005b34801561022757600080fd5b506102466004803603810190808035906020019092919050505061043f565b005b34801561025457600080fd5b50610289600480360381019080803573ffffffffffffffffffffffffffffffffffffffff1690602001909291905050506104e4565b005b60003073ffffffffffffffffffffffffffffffffffffffff1631905090565b6000809054906101000a900473ffffffffffffffffffffffffffffffffffffffff1673ffffffffffffffffffffffffffffffffffffffff163373ffffffffffffffffffffffffffffffffffffffff1614151561030557600080fd5b816001908051906020019061031b929190610639565b50806002819055505050565b6060600060018054600181600116156101000203166002900480601f0160208091040260200160405190810160405280929190818152602001828054600181600116156101000203166002900480156103c15780601f10610396576101008083540402835291602001916103c1565b820191906000526020600020905b8154815290600101906020018083116103a457829003601f168201915b5050505050915060025490509091565b6000809054906101000a900473ffffffffffffffffffffffffffffffffffffffff1681565b3073ffffffffffffffffffffffffffffffffffffffff166108fc349081150290604051600060405180830381858888f1935050505015801561043c573d6000803e3d6000fd5b50565b6000809054906101000a900473ffffffffffffffffffffffffffffffffffffffff1673ffffffffffffffffffffffffffffffffffffffff163373ffffffffffffffffffffffffffffffffffffffff1614151561049a57600080fd5b3373ffffffffffffffffffffffffffffffffffffffff166108fc829081150290604051600060405180830381858888f193505050501580156104e0573d6000803e3d6000fd5b5050565b6000809054906101000a900473ffffffffffffffffffffffffffffffffffffffff1673ffffffffffffffffffffffffffffffffffffffff163373ffffffffffffffffffffffffffffffffffffffff1614151561053f57600080fd5b600073ffffffffffffffffffffffffffffffffffffffff168173ffffffffffffffffffffffffffffffffffffffff161415151561057b57600080fd5b8073ffffffffffffffffffffffffffffffffffffffff166000809054906101000a900473ffffffffffffffffffffffffffffffffffffffff1673ffffffffffffffffffffffffffffffffffffffff167f8be0079c531659141344cd1fd0a4f28419497f9722a3daafe3b4186f6b6457e060405160405180910390a3806000806101000a81548173ffffffffffffffffffffffffffffffffffffffff021916908373ffffffffffffffffffffffffffffffffffffffff16021790555050565b828054600181600116156101000203166002900490600052602060002090601f016020900481019282601f1061067a57805160ff19168380011785556106a8565b828001600101855582156106a8579182015b828111156106a757825182559160200191906001019061068c565b5b5090506106b591906106b9565b5090565b6106db91905b808211156106d75760008160009055506001016106bf565b5090565b905600a165627a7a72305820db497b5f91e88c83fae89011519a3cf03a8ab0f2e08424181ca3980da18d614d0029",
  "source": "pragma solidity ^0.4.10;\n\nimport 'zeppelin/contracts/ownership/Ownable.sol';\n\ncontract LibraryDemo is Ownable{\n\n  string name;\n  uint regno;\n\n\n  function setvalues(string _name,uint _number) onlyOwner {\n    name=_name;\n    regno=_number;\n  }\n\n  function getvalues() constant returns(string Name,uint Number) {\n    Name=name;\n    Number=regno;\n  }\n\n  function addmoney() payable{\n    this.transfer(msg.value);\n  }\n\n  function withdrawmoney(uint value) onlyOwner {\n    msg.sender.transfer(value);\n  }\n\n  function showWalletBalance() constant returns(uint){\n    return this.balance;\n  }\n\n  function() payable{\n\n  }\n}\n",
  "sourcePath": "/home/souradeep/Downloads/Proffeth/contracts/LibraryDemo.sol",
  "compiler": {
    "name": "solc",
    "version": "0.4.24+commit.e67f0147.Emscripten.clang"
  },
  "schemaVersion": "2.0.1",
  "updatedAt": "2018-08-25T08:38:47.184Z"
}